{
  "_format": "hh-sol-artifact-1",
  "contractName": "PollContract",
  "sourceName": "contracts/PollContract.sol",
  "abi": [
    {
      "anonymous": false,
      "inputs": [
        {
          "indexed": false,
          "internalType": "address",
          "name": "from",
          "type": "address"
        },
        {
          "indexed": false,
          "internalType": "uint256",
          "name": "pollId",
          "type": "uint256"
        },
        {
          "indexed": false,
          "internalType": "string",
          "name": "title",
          "type": "string"
        },
        {
          "indexed": false,
          "internalType": "string",
          "name": "category",
          "type": "string"
        },
        {
          "indexed": false,
          "internalType": "string",
          "name": "description",
          "type": "string"
        },
        {
          "indexed": false,
          "internalType": "string[]",
          "name": "options",
          "type": "string[]"
        },
        {
          "indexed": false,
          "internalType": "uint8[4]",
          "name": "votes",
          "type": "uint8[4]"
        },
        {
          "indexed": false,
          "internalType": "uint256",
          "name": "timestamp",
          "type": "uint256"
        },
        {
          "indexed": false,
          "internalType": "bool",
          "name": "start",
          "type": "bool"
        },
        {
          "indexed": false,
          "internalType": "bool",
          "name": "end",
          "type": "bool"
        },
        {
          "indexed": false,
          "internalType": "uint256",
          "name": "endDate",
          "type": "uint256"
        }
      ],
      "name": "Create",
      "type": "event"
    },
    {
      "anonymous": false,
      "inputs": [
        {
          "indexed": false,
          "internalType": "address",
          "name": "from",
          "type": "address"
        },
        {
          "indexed": false,
          "internalType": "uint256",
          "name": "VpollId",
          "type": "uint256"
        },
        {
          "indexed": false,
          "internalType": "string",
          "name": "Vvote",
          "type": "string"
        },
        {
          "indexed": false,
          "internalType": "uint256",
          "name": "Vtimestamp",
          "type": "uint256"
        },
        {
          "indexed": false,
          "internalType": "bool",
          "name": "VhasVoted",
          "type": "bool"
        }
      ],
      "name": "CreateVote",
      "type": "event"
    },
    {
      "inputs": [
        {
          "internalType": "address",
          "name": "",
          "type": "address"
        },
        {
          "internalType": "uint256",
          "name": "",
          "type": "uint256"
        }
      ],
      "name": "CreatorPoll",
      "outputs": [
        {
          "internalType": "address",
          "name": "sender",
          "type": "address"
        },
        {
          "internalType": "uint256",
          "name": "pollId",
          "type": "uint256"
        },
        {
          "internalType": "string",
          "name": "title",
          "type": "string"
        },
        {
          "internalType": "string",
          "name": "category",
          "type": "string"
        },
        {
          "internalType": "string",
          "name": "description",
          "type": "string"
        },
        {
          "internalType": "uint256",
          "name": "timestamp",
          "type": "uint256"
        },
        {
          "internalType": "bool",
          "name": "start",
          "type": "bool"
        },
        {
          "internalType": "bool",
          "name": "end",
          "type": "bool"
        },
        {
          "internalType": "uint256",
          "name": "endDate",
          "type": "uint256"
        }
      ],
      "stateMutability": "view",
      "type": "function"
    },
    {
      "inputs": [
        {
          "internalType": "uint256",
          "name": "",
          "type": "uint256"
        },
        {
          "internalType": "uint256",
          "name": "",
          "type": "uint256"
        }
      ],
      "name": "PollVotes",
      "outputs": [
        {
          "internalType": "address",
          "name": "voter",
          "type": "address"
        },
        {
          "internalType": "uint256",
          "name": "VpollId",
          "type": "uint256"
        },
        {
          "internalType": "string",
          "name": "Vvote",
          "type": "string"
        },
        {
          "internalType": "uint256",
          "name": "Vtimestamp",
          "type": "uint256"
        },
        {
          "internalType": "bool",
          "name": "VhasVoted",
          "type": "bool"
        }
      ],
      "stateMutability": "view",
      "type": "function"
    },
    {
      "inputs": [
        {
          "internalType": "string",
          "name": "title",
          "type": "string"
        },
        {
          "internalType": "string",
          "name": "category",
          "type": "string"
        },
        {
          "internalType": "string",
          "name": "description",
          "type": "string"
        },
        {
          "internalType": "string",
          "name": "optionOne",
          "type": "string"
        },
        {
          "internalType": "string",
          "name": "optionTwo",
          "type": "string"
        },
        {
          "internalType": "string",
          "name": "optionThree",
          "type": "string"
        },
        {
          "internalType": "string",
          "name": "optionFour",
          "type": "string"
        },
        {
          "internalType": "uint256",
          "name": "endDate",
          "type": "uint256"
        }
      ],
      "name": "addToBlockchain",
      "outputs": [],
      "stateMutability": "nonpayable",
      "type": "function"
    },
    {
      "inputs": [
        {
          "internalType": "uint256",
          "name": "_pollId",
          "type": "uint256"
        }
      ],
      "name": "endPoll",
      "outputs": [],
      "stateMutability": "nonpayable",
      "type": "function"
    },
    {
      "inputs": [],
      "name": "getAllPolls",
      "outputs": [
        {
          "components": [
            {
              "internalType": "address",
              "name": "sender",
              "type": "address"
            },
            {
              "internalType": "uint256",
              "name": "pollId",
              "type": "uint256"
            },
            {
              "internalType": "string",
              "name": "title",
              "type": "string"
            },
            {
              "internalType": "string",
              "name": "category",
              "type": "string"
            },
            {
              "internalType": "string",
              "name": "description",
              "type": "string"
            },
            {
              "internalType": "string[]",
              "name": "options",
              "type": "string[]"
            },
            {
              "internalType": "uint8[4]",
              "name": "votes",
              "type": "uint8[4]"
            },
            {
              "internalType": "uint256",
              "name": "timestamp",
              "type": "uint256"
            },
            {
              "internalType": "bool",
              "name": "start",
              "type": "bool"
            },
            {
              "internalType": "bool",
              "name": "end",
              "type": "bool"
            },
            {
              "internalType": "uint256",
              "name": "endDate",
              "type": "uint256"
            }
          ],
          "internalType": "struct PollContract.PollStruct[]",
          "name": "",
          "type": "tuple[]"
        }
      ],
      "stateMutability": "view",
      "type": "function"
    },
    {
      "inputs": [
        {
          "internalType": "address",
          "name": "_creator",
          "type": "address"
        }
      ],
      "name": "getMyPoll",
      "outputs": [
        {
          "components": [
            {
              "internalType": "address",
              "name": "sender",
              "type": "address"
            },
            {
              "internalType": "uint256",
              "name": "pollId",
              "type": "uint256"
            },
            {
              "internalType": "string",
              "name": "title",
              "type": "string"
            },
            {
              "internalType": "string",
              "name": "category",
              "type": "string"
            },
            {
              "internalType": "string",
              "name": "description",
              "type": "string"
            },
            {
              "internalType": "string[]",
              "name": "options",
              "type": "string[]"
            },
            {
              "internalType": "uint8[4]",
              "name": "votes",
              "type": "uint8[4]"
            },
            {
              "internalType": "uint256",
              "name": "timestamp",
              "type": "uint256"
            },
            {
              "internalType": "bool",
              "name": "start",
              "type": "bool"
            },
            {
              "internalType": "bool",
              "name": "end",
              "type": "bool"
            },
            {
              "internalType": "uint256",
              "name": "endDate",
              "type": "uint256"
            }
          ],
          "internalType": "struct PollContract.PollStruct[]",
          "name": "",
          "type": "tuple[]"
        }
      ],
      "stateMutability": "view",
      "type": "function"
    },
    {
      "inputs": [],
      "name": "getPollCount",
      "outputs": [
        {
          "internalType": "uint256",
          "name": "",
          "type": "uint256"
        }
      ],
      "stateMutability": "view",
      "type": "function"
    },
    {
      "inputs": [
        {
          "internalType": "uint256",
          "name": "_pollId",
          "type": "uint256"
        }
      ],
      "name": "getVotes",
      "outputs": [
        {
          "components": [
            {
              "internalType": "address",
              "name": "voter",
              "type": "address"
            },
            {
              "internalType": "uint256",
              "name": "VpollId",
              "type": "uint256"
            },
            {
              "internalType": "string",
              "name": "Vvote",
              "type": "string"
            },
            {
              "internalType": "uint256",
              "name": "Vtimestamp",
              "type": "uint256"
            },
            {
              "internalType": "bool",
              "name": "VhasVoted",
              "type": "bool"
            }
          ],
          "internalType": "struct PollContract.VoteStruct[]",
          "name": "",
          "type": "tuple[]"
        }
      ],
      "stateMutability": "view",
      "type": "function"
    },
    {
      "inputs": [
        {
          "internalType": "address",
          "name": "_voter",
          "type": "address"
        },
        {
          "internalType": "uint256",
          "name": "_pollId",
          "type": "uint256"
        }
      ],
      "name": "hasVoted",
      "outputs": [
        {
          "internalType": "bool",
          "name": "",
          "type": "bool"
        }
      ],
      "stateMutability": "view",
      "type": "function"
    },
    {
      "inputs": [
        {
          "internalType": "string",
          "name": "_vote",
          "type": "string"
        },
        {
          "internalType": "uint256",
          "name": "_pollId",
          "type": "uint256"
        }
      ],
      "name": "vote",
      "outputs": [],
      "stateMutability": "nonpayable",
      "type": "function"
    }
  ],
  "bytecode": "0x608060405234801561001057600080fd5b50612fb6806100206000396000f3fe608060405234801561001057600080fd5b506004361061009e5760003560e01c806361288586116100665780636128858614610163578063a57b274014610193578063a6385803146101c7578063f43b8778146101e3578063ff981099146101ff5761009e565b806311a52746146100a357806320f0c6d7146100c157806332b633fa146100dd57806342545825146100fb5780634add08041461012b575b600080fd5b6100ab61022f565b6040516100b89190612b2b565b60405180910390f35b6100db60048036038101906100d69190612058565b610238565b005b6100e5610895565b6040516100f29190612acc565b60405180910390f35b6101156004803603810190610110919061201c565b610c99565b6040516101229190612b10565b60405180910390f35b6101456004803603810190610140919061201c565b610dc1565b60405161015a999897969594939291906129d0565b60405180910390f35b61017d60048036038101906101789190611ff3565b610ffe565b60405161018a9190612acc565b60405180910390f35b6101ad60048036038101906101a8919061222f565b611441565b6040516101be959493929190612a72565b60405180910390f35b6101e160048036038101906101dc91906121b2565b611549565b005b6101fd60048036038101906101f89190612206565b611afb565b005b61021960048036038101906102149190612206565b611bd7565b6040516102269190612aee565b60405180910390f35b60008054905090565b5b6000601180549050146102a157601180548061027e577f4e487b7100000000000000000000000000000000000000000000000000000000600052603160045260246000fd5b60019003818190600052602060002001600061029a9190611d60565b9055610239565b60016000808282546102b39190612d15565b925050819055506001600260008282546102cd9190612d15565b9250508190555060006040518060800160405280600060ff168152602001600060ff168152602001600060ff168152602001600060ff168152509050601186908060018154018082558091505060019003906000526020600020016000909190919091509080519060200190610344929190611da0565b50601185908060018154018082558091505060019003906000526020600020016000909190919091509080519060200190610380929190611da0565b506011849080600181540180825580915050600190039060005260206000200160009091909190915090805190602001906103bc929190611da0565b506011839080600181540180825580915050600190039060005260206000200160009091909190915090805190602001906103f8929190611da0565b5060006040518061016001604052803373ffffffffffffffffffffffffffffffffffffffff16815260200160025481526020018b81526020018a81526020018981526020016011805480602002602001604051908101604052809291908181526020016000905b8282101561050b57838290600052602060002001805461047e90612e39565b80601f01602080910402602001604051908101604052809291908181526020018280546104aa90612e39565b80156104f75780601f106104cc576101008083540402835291602001916104f7565b820191906000526020600020905b8154815290600101906020018083116104da57829003601f168201915b50505050508152602001906001019061045f565b50505050815260200183815260200142815260200160011515815260200160001515815260200184815250905060038190806001815401808255809150506001900390600052602060002090600a020160009091909190915060008201518160000160006101000a81548173ffffffffffffffffffffffffffffffffffffffff021916908373ffffffffffffffffffffffffffffffffffffffff1602179055506020820151816001015560408201518160020190805190602001906105d1929190611da0565b5060608201518160030190805190602001906105ee929190611da0565b50608082015181600401908051906020019061060b929190611da0565b5060a0820151816005019080519060200190610628929190611e26565b5060c082015181600601906004610640929190611e86565b5060e082015181600701556101008201518160080160006101000a81548160ff0219169083151502179055506101208201518160080160016101000a81548160ff02191690831515021790555061014082015181600901555050601360003373ffffffffffffffffffffffffffffffffffffffff1673ffffffffffffffffffffffffffffffffffffffff1681526020019081526020016000208190806001815401808255809150506001900390600052602060002090600a020160009091909190915060008201518160000160006101000a81548173ffffffffffffffffffffffffffffffffffffffff021916908373ffffffffffffffffffffffffffffffffffffffff160217905550602082015181600101556040820151816002019080519060200190610770929190611da0565b50606082015181600301908051906020019061078d929190611da0565b5060808201518160040190805190602001906107aa929190611da0565b5060a08201518160050190805190602001906107c7929190611e26565b5060c0820151816006019060046107df929190611e86565b5060e082015181600701556101008201518160080160006101000a81548160ff0219169083151502179055506101208201518160080160016101000a81548160ff021916908315150217905550610140820151816009015550507f9c0d6390ff7c9be5df082c3f6b52b82356ec29b1a39b031fcaf84aab34184442336002548c8c8c60118842600160008d6040516108819b9a99989796959493929190612908565b60405180910390a150505050505050505050565b60606003805480602002602001604051908101604052809291908181526020016000905b82821015610c9057838290600052602060002090600a0201604051806101600160405290816000820160009054906101000a900473ffffffffffffffffffffffffffffffffffffffff1673ffffffffffffffffffffffffffffffffffffffff1673ffffffffffffffffffffffffffffffffffffffff1681526020016001820154815260200160028201805461094d90612e39565b80601f016020809104026020016040519081016040528092919081815260200182805461097990612e39565b80156109c65780601f1061099b576101008083540402835291602001916109c6565b820191906000526020600020905b8154815290600101906020018083116109a957829003601f168201915b505050505081526020016003820180546109df90612e39565b80601f0160208091040260200160405190810160405280929190818152602001828054610a0b90612e39565b8015610a585780601f10610a2d57610100808354040283529160200191610a58565b820191906000526020600020905b815481529060010190602001808311610a3b57829003601f168201915b50505050508152602001600482018054610a7190612e39565b80601f0160208091040260200160405190810160405280929190818152602001828054610a9d90612e39565b8015610aea5780601f10610abf57610100808354040283529160200191610aea565b820191906000526020600020905b815481529060010190602001808311610acd57829003601f168201915b5050505050815260200160058201805480602002602001604051908101604052809291908181526020016000905b82821015610bc4578382906000526020600020018054610b3790612e39565b80601f0160208091040260200160405190810160405280929190818152602001828054610b6390612e39565b8015610bb05780601f10610b8557610100808354040283529160200191610bb0565b820191906000526020600020905b815481529060010190602001808311610b9357829003601f168201915b505050505081526020019060010190610b18565b50505050815260200160068201600480602002604051908101604052809291908260048015610c2e576020028201916000905b82829054906101000a900460ff1660ff1681526020019060010190602082600001049283019260010382029150808411610bf75790505b50505050508152602001600782015481526020016008820160009054906101000a900460ff161515151581526020016008820160019054906101000a900460ff16151515158152602001600982015481525050815260200190600101906108b9565b50505050905090565b60008060005b600154811015610db6578360048281548110610ce4577f4e487b7100000000000000000000000000000000000000000000000000000000600052603260045260246000fd5b906000526020600020906005020160010154148015610d9957508473ffffffffffffffffffffffffffffffffffffffff1660048281548110610d4f577f4e487b7100000000000000000000000000000000000000000000000000000000600052603260045260246000fd5b906000526020600020906005020160000160009054906101000a900473ffffffffffffffffffffffffffffffffffffffff1673ffffffffffffffffffffffffffffffffffffffff16145b15610da357600191505b8080610dae90612e6b565b915050610c9f565b508091505092915050565b60136020528160005260406000208181548110610ddd57600080fd5b90600052602060002090600a0201600091509150508060000160009054906101000a900473ffffffffffffffffffffffffffffffffffffffff1690806001015490806002018054610e2d90612e39565b80601f0160208091040260200160405190810160405280929190818152602001828054610e5990612e39565b8015610ea65780601f10610e7b57610100808354040283529160200191610ea6565b820191906000526020600020905b815481529060010190602001808311610e8957829003601f168201915b505050505090806003018054610ebb90612e39565b80601f0160208091040260200160405190810160405280929190818152602001828054610ee790612e39565b8015610f345780601f10610f0957610100808354040283529160200191610f34565b820191906000526020600020905b815481529060010190602001808311610f1757829003601f168201915b505050505090806004018054610f4990612e39565b80601f0160208091040260200160405190810160405280929190818152602001828054610f7590612e39565b8015610fc25780601f10610f9757610100808354040283529160200191610fc2565b820191906000526020600020905b815481529060010190602001808311610fa557829003601f168201915b5050505050908060070154908060080160009054906101000a900460ff16908060080160019054906101000a900460ff16908060090154905089565b6060601360008373ffffffffffffffffffffffffffffffffffffffff1673ffffffffffffffffffffffffffffffffffffffff168152602001908152602001600020805480602002602001604051908101604052809291908181526020016000905b8282101561143657838290600052602060002090600a0201604051806101600160405290816000820160009054906101000a900473ffffffffffffffffffffffffffffffffffffffff1673ffffffffffffffffffffffffffffffffffffffff1673ffffffffffffffffffffffffffffffffffffffff168152602001600182015481526020016002820180546110f390612e39565b80601f016020809104026020016040519081016040528092919081815260200182805461111f90612e39565b801561116c5780601f106111415761010080835404028352916020019161116c565b820191906000526020600020905b81548152906001019060200180831161114f57829003601f168201915b5050505050815260200160038201805461118590612e39565b80601f01602080910402602001604051908101604052809291908181526020018280546111b190612e39565b80156111fe5780601f106111d3576101008083540402835291602001916111fe565b820191906000526020600020905b8154815290600101906020018083116111e157829003601f168201915b5050505050815260200160048201805461121790612e39565b80601f016020809104026020016040519081016040528092919081815260200182805461124390612e39565b80156112905780601f1061126557610100808354040283529160200191611290565b820191906000526020600020905b81548152906001019060200180831161127357829003601f168201915b5050505050815260200160058201805480602002602001604051908101604052809291908181526020016000905b8282101561136a5783829060005260206000200180546112dd90612e39565b80601f016020809104026020016040519081016040528092919081815260200182805461130990612e39565b80156113565780601f1061132b57610100808354040283529160200191611356565b820191906000526020600020905b81548152906001019060200180831161133957829003601f168201915b5050505050815260200190600101906112be565b505050508152602001600682016004806020026040519081016040528092919082600480156113d4576020028201916000905b82829054906101000a900460ff1660ff168152602001906001019060208260000104928301926001038202915080841161139d5790505b50505050508152602001600782015481526020016008820160009054906101000a900460ff161515151581526020016008820160019054906101000a900460ff161515151581526020016009820154815250508152602001906001019061105f565b505050509050919050565b6012602052816000526040600020818154811061145d57600080fd5b9060005260206000209060050201600091509150508060000160009054906101000a900473ffffffffffffffffffffffffffffffffffffffff16908060010154908060020180546114ad90612e39565b80601f01602080910402602001604051908101604052809291908181526020018280546114d990612e39565b80156115265780601f106114fb57610100808354040283529160200191611526565b820191906000526020600020905b81548152906001019060200180831161150957829003601f168201915b5050505050908060030154908060040160009054906101000a900460ff16905085565b600180600082825461155b9190612d15565b9250508190555060005b6000548110156118d45781600382815481106115aa577f4e487b7100000000000000000000000000000000000000000000000000000000600052603260045260246000fd5b90600052602060002090600a02016001015414156118c1576000151560038281548110611600577f4e487b7100000000000000000000000000000000000000000000000000000000600052603260045260246000fd5b90600052602060002090600a020160080160019054906101000a900460ff16151514156118c05760005b8360405160200161163b91906128da565b604051602081830303815290604052805190602001206003838154811061168b577f4e487b7100000000000000000000000000000000000000000000000000000000600052603260045260246000fd5b90600052602060002090600a020160050182815481106116d4577f4e487b7100000000000000000000000000000000000000000000000000000000600052603260045260246000fd5b906000526020600020016040516020016116ee91906128f1565b604051602081830303815290604052805190602001201461171d576001816117169190612d15565b905061162a565b8360405160200161172e91906128da565b604051602081830303815290604052805190602001206003838154811061177e577f4e487b7100000000000000000000000000000000000000000000000000000000600052603260045260246000fd5b90600052602060002090600a020160050182815481106117c7577f4e487b7100000000000000000000000000000000000000000000000000000000600052603260045260246000fd5b906000526020600020016040516020016117e191906128f1565b6040516020818303038152906040528051906020012014156118be57600160038381548110611839577f4e487b7100000000000000000000000000000000000000000000000000000000600052603260045260246000fd5b90600052602060002090600a02016006018260048110611882577f4e487b7100000000000000000000000000000000000000000000000000000000600052603260045260246000fd5b602091828204019190068282829054906101000a900460ff166118a59190612d6b565b92506101000a81548160ff021916908360ff1602179055505b505b5b80806118cc90612e6b565b915050611565565b5060006040518060a001604052803373ffffffffffffffffffffffffffffffffffffffff168152602001838152602001848152602001428152602001600115158152509050600481908060018154018082558091505060019003906000526020600020906005020160009091909190915060008201518160000160006101000a81548173ffffffffffffffffffffffffffffffffffffffff021916908373ffffffffffffffffffffffffffffffffffffffff1602179055506020820151816001015560408201518160020190805190602001906119b2929190611da0565b506060820151816003015560808201518160040160006101000a81548160ff02191690831515021790555050506012600083815260200190815260200160002081908060018154018082558091505060019003906000526020600020906005020160009091909190915060008201518160000160006101000a81548173ffffffffffffffffffffffffffffffffffffffff021916908373ffffffffffffffffffffffffffffffffffffffff160217905550602082015181600101556040820151816002019080519060200190611a89929190611da0565b506060820151816003015560808201518160040160006101000a81548160ff02191690831515021790555050507f06de8db3d494734d42fa2fa5eb7b2de89a8f09a326da6b30cbcc5ed30a677683338385426001604051611aee959493929190612a72565b60405180910390a1505050565b60005b600054811015611bd3578160038281548110611b43577f4e487b7100000000000000000000000000000000000000000000000000000000600052603260045260246000fd5b90600052602060002090600a0201600101541415611bc057600160038281548110611b97577f4e487b7100000000000000000000000000000000000000000000000000000000600052603260045260246000fd5b90600052602060002090600a020160080160016101000a81548160ff0219169083151502179055505b8080611bcb90612e6b565b915050611afe565b5050565b606060126000838152602001908152602001600020805480602002602001604051908101604052809291908181526020016000905b82821015611d5557838290600052602060002090600502016040518060a00160405290816000820160009054906101000a900473ffffffffffffffffffffffffffffffffffffffff1673ffffffffffffffffffffffffffffffffffffffff1673ffffffffffffffffffffffffffffffffffffffff16815260200160018201548152602001600282018054611c9f90612e39565b80601f0160208091040260200160405190810160405280929190818152602001828054611ccb90612e39565b8015611d185780601f10611ced57610100808354040283529160200191611d18565b820191906000526020600020905b815481529060010190602001808311611cfb57829003601f168201915b50505050508152602001600382015481526020016004820160009054906101000a900460ff16151515158152505081526020019060010190611c0c565b505050509050919050565b508054611d6c90612e39565b6000825580601f10611d7e5750611d9d565b601f016020900490600052602060002090810190611d9c9190611f20565b5b50565b828054611dac90612e39565b90600052602060002090601f016020900481019282611dce5760008555611e15565b82601f10611de757805160ff1916838001178555611e15565b82800160010185558215611e15579182015b82811115611e14578251825591602001919060010190611df9565b5b509050611e229190611f20565b5090565b828054828255906000526020600020908101928215611e75579160200282015b82811115611e74578251829080519060200190611e64929190611da0565b5091602001919060010190611e46565b5b509050611e829190611f3d565b5090565b826004601f01602090048101928215611f0f5791602002820160005b83821115611ee057835183826101000a81548160ff021916908360ff1602179055509260200192600101602081600001049283019260010302611ea2565b8015611f0d5782816101000a81549060ff0219169055600101602081600001049283019260010302611ee0565b505b509050611f1c9190611f20565b5090565b5b80821115611f39576000816000905550600101611f21565b5090565b5b80821115611f5d5760008181611f549190611d60565b50600101611f3e565b5090565b6000611f74611f6f84612b77565b612b46565b905082815260208101848484011115611f8c57600080fd5b611f97848285612df7565b509392505050565b600081359050611fae81612f52565b92915050565b600082601f830112611fc557600080fd5b8135611fd5848260208601611f61565b91505092915050565b600081359050611fed81612f69565b92915050565b60006020828403121561200557600080fd5b600061201384828501611f9f565b91505092915050565b6000806040838503121561202f57600080fd5b600061203d85828601611f9f565b925050602061204e85828601611fde565b9150509250929050565b600080600080600080600080610100898b03121561207557600080fd5b600089013567ffffffffffffffff81111561208f57600080fd5b61209b8b828c01611fb4565b985050602089013567ffffffffffffffff8111156120b857600080fd5b6120c48b828c01611fb4565b975050604089013567ffffffffffffffff8111156120e157600080fd5b6120ed8b828c01611fb4565b965050606089013567ffffffffffffffff81111561210a57600080fd5b6121168b828c01611fb4565b955050608089013567ffffffffffffffff81111561213357600080fd5b61213f8b828c01611fb4565b94505060a089013567ffffffffffffffff81111561215c57600080fd5b6121688b828c01611fb4565b93505060c089013567ffffffffffffffff81111561218557600080fd5b6121918b828c01611fb4565b92505060e06121a28b828c01611fde565b9150509295985092959890939650565b600080604083850312156121c557600080fd5b600083013567ffffffffffffffff8111156121df57600080fd5b6121eb85828601611fb4565b92505060206121fc85828601611fde565b9150509250929050565b60006020828403121561221857600080fd5b600061222684828501611fde565b91505092915050565b6000806040838503121561224257600080fd5b600061225085828601611fde565b925050602061226185828601611fde565b9150509250929050565b60006122778383612590565b905092915050565b600061228b8383612633565b905092915050565b600061229f8383612732565b905092915050565b60006122b38383612837565b905092915050565b60006122c783836128cb565b60208301905092915050565b6122dc81612da2565b82525050565b6122eb81612da2565b82525050565b60006122fc82612c0b565b6123068185612c8e565b93508360208202850161231885612ba7565b8060005b858110156123545784840389528151612335858261226b565b945061234083612c4d565b925060208a0199505060018101905061231c565b50829750879550505050505092915050565b600061237182612c16565b61237b8185612c9f565b93508360208202850161238d85612bb7565b8060005b858110156123c8578484038952816123a9858261227f565b94506123b483612c5a565b925060208a01995050600181019050612391565b50829750879550505050505092915050565b60006123e582612c21565b6123ef8185612cb0565b93508360208202850161240185612bcc565b8060005b8581101561243d578484038952815161241e8582612293565b945061242983612c67565b925060208a01995050600181019050612405565b50829750879550505050505092915050565b600061245a82612c2c565b6124648185612cc1565b93508360208202850161247685612bdc565b8060005b858110156124b2578484038952815161249385826122a7565b945061249e83612c74565b925060208a0199505060018101905061247a565b50829750879550505050505092915050565b6124cd81612c37565b6124d78184612cd2565b92506124e282612bec565b8060005b838110156125135781516124fa87826122bb565b965061250583612c81565b9250506001810190506124e6565b505050505050565b61252481612c37565b61252e8184612cdd565b925061253982612bec565b8060005b8381101561256a57815161255187826122bb565b965061255c83612c81565b92505060018101905061253d565b505050505050565b61257b81612db4565b82525050565b61258a81612db4565b82525050565b600061259b82612c42565b6125a58185612ce8565b93506125b5818560208601612e06565b6125be81612f41565b840191505092915050565b60006125d482612c42565b6125de8185612cf9565b93506125ee818560208601612e06565b6125f781612f41565b840191505092915050565b600061260d82612c42565b6126178185612d0a565b9350612627818560208601612e06565b80840191505092915050565b6000815461264081612e39565b61264a8186612ce8565b945060018216600081146126655760018114612677576126aa565b60ff19831686526020860193506126aa565b61268085612bf6565b60005b838110156126a257815481890152600182019150602081019050612683565b808801955050505b50505092915050565b600081546126c081612e39565b6126ca8186612d0a565b945060018216600081146126e557600181146126f657612729565b60ff19831686528186019350612729565b6126ff85612bf6565b60005b8381101561272157815481890152600182019150602081019050612702565b838801955050505b50505092915050565b60006101c08301600083015161274b60008601826122d3565b50602083015161275e60208601826128ad565b50604083015184820360408601526127768282612590565b915050606083015184820360608601526127908282612590565b915050608083015184820360808601526127aa8282612590565b91505060a083015184820360a08601526127c482826122f1565b91505060c08301516127d960c08601826124c4565b5060e08301516127ed6101408601826128ad565b50610100830151612802610160860182612572565b50610120830151612817610180860182612572565b5061014083015161282c6101a08601826128ad565b508091505092915050565b600060a08301600083015161284f60008601826122d3565b50602083015161286260208601826128ad565b506040830151848203604086015261287a8282612590565b915050606083015161288f60608601826128ad565b5060808301516128a26080860182612572565b508091505092915050565b6128b681612de0565b82525050565b6128c581612de0565b82525050565b6128d481612dea565b82525050565b60006128e68284612602565b915081905092915050565b60006128fd82846126b3565b915081905092915050565b60006101c08201905061291e600083018e6122e2565b61292b602083018d6128bc565b818103604083015261293d818c6125c9565b90508181036060830152612951818b6125c9565b90508181036080830152612965818a6125c9565b905081810360a08301526129798189612366565b905061298860c083018861251b565b6129966101408301876128bc565b6129a4610160830186612581565b6129b2610180830185612581565b6129c06101a08301846128bc565b9c9b505050505050505050505050565b6000610120820190506129e6600083018c6122e2565b6129f3602083018b6128bc565b8181036040830152612a05818a6125c9565b90508181036060830152612a1981896125c9565b90508181036080830152612a2d81886125c9565b9050612a3c60a08301876128bc565b612a4960c0830186612581565b612a5660e0830185612581565b612a646101008301846128bc565b9a9950505050505050505050565b600060a082019050612a8760008301886122e2565b612a9460208301876128bc565b8181036040830152612aa681866125c9565b9050612ab560608301856128bc565b612ac26080830184612581565b9695505050505050565b60006020820190508181036000830152612ae681846123da565b905092915050565b60006020820190508181036000830152612b08818461244f565b905092915050565b6000602082019050612b256000830184612581565b92915050565b6000602082019050612b4060008301846128bc565b92915050565b6000604051905081810181811067ffffffffffffffff82111715612b6d57612b6c612f12565b5b8060405250919050565b600067ffffffffffffffff821115612b9257612b91612f12565b5b601f19601f8301169050602081019050919050565b6000819050602082019050919050565b60008190508160005260206000209050919050565b6000819050602082019050919050565b6000819050602082019050919050565b6000819050919050565b60008190508160005260206000209050919050565b600081519050919050565b600081549050919050565b600081519050919050565b600081519050919050565b600060049050919050565b600081519050919050565b6000602082019050919050565b6000600182019050919050565b6000602082019050919050565b6000602082019050919050565b6000602082019050919050565b600082825260208201905092915050565b600082825260208201905092915050565b600082825260208201905092915050565b600082825260208201905092915050565b600081905092915050565b600081905092915050565b600082825260208201905092915050565b600082825260208201905092915050565b600081905092915050565b6000612d2082612de0565b9150612d2b83612de0565b9250827fffffffffffffffffffffffffffffffffffffffffffffffffffffffffffffffff03821115612d6057612d5f612eb4565b5b828201905092915050565b6000612d7682612dea565b9150612d8183612dea565b92508260ff03821115612d9757612d96612eb4565b5b828201905092915050565b6000612dad82612dc0565b9050919050565b60008115159050919050565b600073ffffffffffffffffffffffffffffffffffffffff82169050919050565b6000819050919050565b600060ff82169050919050565b82818337600083830152505050565b60005b83811015612e24578082015181840152602081019050612e09565b83811115612e33576000848401525b50505050565b60006002820490506001821680612e5157607f821691505b60208210811415612e6557612e64612ee3565b5b50919050565b6000612e7682612de0565b91507fffffffffffffffffffffffffffffffffffffffffffffffffffffffffffffffff821415612ea957612ea8612eb4565b5b600182019050919050565b7f4e487b7100000000000000000000000000000000000000000000000000000000600052601160045260246000fd5b7f4e487b7100000000000000000000000000000000000000000000000000000000600052602260045260246000fd5b7f4e487b7100000000000000000000000000000000000000000000000000000000600052604160045260246000fd5b6000601f19601f8301169050919050565b612f5b81612da2565b8114612f6657600080fd5b50565b612f7281612de0565b8114612f7d57600080fd5b5056fea2646970667358221220148f27dc4d02ae5e2fb8770dc3a967c913a22b39285306ee1ab8985d5c25025664736f6c63430008000033",
  "linkReferences": {},
  "deployedLinkReferences": {}
}